SPE1C126T06948465017225469                                    701579813503/19/26SPE1C126T0694.pdf  0000001EABAG,DUFFEL           DMR01Z1N000
SPE1C126T06958415017169901                                    701580206703/19/26SPE1C126T0695.pdf  0000020EABAG,OUTFIT,FIREMEN'  DMR01Q1N000
SPE1C126T06968470016987150                                    701580266503/19/26SPE1C126T0696.pdf  0000003EAHELMET,BODY ARMOR    DMR01D1N000
SPE1C126T06978470014522457                                    701580422703/19/26SPE1C126T0697.pdf  0000016EASEALED PULL PIN      DMR01Z1N000
SPE1C126T06988475017250936                                    701580410803/19/26SPE1C126T0698.pdf  0000001EACOVER,VISOR,AIR FIL  PCPQDQ1N000
SPE1C126T06998345015836799                                    701580222603/19/26SPE1C126T0699.pdf  0000001EAGUIDON               PCPQCG1N000
SPE1C126T06998345015836799                                    701580426203/19/26SPE1C126T0699.pdf  0000001EAGUIDON               PCPQCG1N000
SPE1C126T06998345015836799                                    701580426303/19/26SPE1C126T0699.pdf  0000001EAGUIDON               PCPQCG1N000
SPE2DH26T22546520017016776                                    701579841103/16/26SPE2DH26T2254.pdf  0000003KTSCALER,DENTAL        PDPSHZ1N000
SPE2DH26T22546520017016776                                    701581537503/16/26SPE2DH26T2254.pdf  0000002KTSCALER,DENTAL        PDPSHZ1N000
SPE2DH26T22556640124194439                                    701579813803/16/26SPE2DH26T2255.pdf  0000001EAFILTER UNIT,MICROPO  PDPSHZ1N000
SPE2DH26T22566532010745602                                    701580118303/16/26SPE2DH26T2256.pdf  0000001PGGOWN,HOSPITAL PERSO  PDPSHZ1N000
SPE2DH26T22586640015089431                                    701580191903/16/26SPE2DH26T2258.pdf  0000006EATIMER,DIGITAL        PDPSHZ1N000
SPE2DH26T22596640015340792                                    701580123203/16/26SPE2DH26T2259.pdf  0000001PGWIPER,LABORATORY     PDPSHZ1N000
SPE2DH26T22606640016043258                                    701580118103/16/26SPE2DH26T2260.pdf  0000001PGSEXUAL ASSAULT DETE  PDPSHZ1N000
SPE2DH26T22616530012125343                                    701580126403/16/26SPE2DH26T2261.pdf  0000004PGPAD,HEATING,CHEMICA  PDPSHZ1N000
SPE2DH26T22626530015615453                                    701580118403/16/26SPE2DH26T2262.pdf  0000001SERESTRAINT SET,WRIST  PDPSHZ1N000
SPE2DH26T22636630013575910                                    701581906203/16/26SPE2DH26T2263.pdf  0000002PGWATER SAMPLING TEST  PDPSHZ1N000
SPE2DH26T22646525017143639                                    701580126303/16/26SPE2DH26T2264.pdf  0000001EAULTRASONIC UNIT,DIA  PDPSHZ1N000
SPE2DH26T22656625015358490                                    701580118203/16/26SPE2DH26T2265.pdf  0000001EACABLE,TEMPERATURE    PDPSHZ1N000
SPE2DH26T22676530013492767                                    701580126803/16/26SPE2DH26T2267.pdf  0000001PGBAG,SPECIMEN         PDPSHZ1N000
SPE2DH26T22686630016721279                                    701580126603/16/26SPE2DH26T2268.pdf  0000001EATESTER,WATER         PDPSHZ1N000
SPE2DH26T22696530016966880                                    701579814803/16/26SPE2DH26T2269.pdf  0000001CSBAG,EMESIS           PDPSHZ1N000
SPE2DH26T22706530017140816                                    701580126503/16/26SPE2DH26T2270.pdf  0000001EATABLE,TREATMENT,PHY  PDPSHZ1N000
SPE2DH26T22716530016187704                                    701580116103/16/26SPE2DH26T2271.pdf  0000001EATRAY,INSTRUMENT      PDPSHZ1N000
SPE2DH26T22726530010780365                                    701580120203/16/26SPE2DH26T2272.pdf  0000001PGBAG,STERILIZATION-B  PDPSHZ1N000
SPE2DH26T22736530014221267                                    701580120003/16/26SPE2DH26T2273.pdf  0000002EAPACK,MEDICAL TRAUMA  PDPSHZ1N000
SPE2DH26T22736530014221267                                    701580120103/16/26SPE2DH26T2273.pdf  0000002EAPACK,MEDICAL TRAUMA  PDPSHZ1N000
SPE2DH26T22746630015035934                                    701580126203/16/26SPE2DH26T2274.pdf  0000001PGTEST KIT,EZ ARSENIC  PDPSHZ1N000
SPE2DH26T22766532014712413                                    701581983203/16/26SPE2DH26T2276.pdf  0000001PGSLIPPERS,CONVALESCE  PDPSHZ1N000
SPE2DH26T22776640014546834                                    701580506503/16/26SPE2DH26T2277.pdf  0000001PGCLOTH,LENS           PDPSHZ1N000
SPE2DH26T22786520012724530                                    701579941803/16/26SPE2DH26T2278.pdf  0000010EASPRAY,ARTICULATING,  PDPSHZ1N000
SPE2DH26T22806630016876909                                    701580506003/16/26SPE2DH26T2280.pdf  0000002EAHYDROMETER,GRADUATE  PDPSHZ1N000
SPE2DH26T22806630016876909                                    701580506303/16/26SPE2DH26T2280.pdf  0000001EAHYDROMETER,GRADUATE  PDPSHZ1N000
SPE2DH26T22816520015877660                                    701580673003/16/26SPE2DH26T2281.pdf  0000002BTINVESTMENT,DENTAL    PDPSHZ1N000
SPE2DP26T21356505017193181                                    701579841203/16/26SPE2DP26T2135.pdf  0000002PGPSYLLIUM HYDROPHILI  DPP00Z1N000
SPE2DP26T21356505017193181                                    701579866303/16/26SPE2DP26T2135.pdf  0000001PGPSYLLIUM HYDROPHILI  DPP00Z1N000
SPE2DP26T21356505017193181                                    701581549503/16/26SPE2DP26T2135.pdf  0000002PGPSYLLIUM HYDROPHILI  DPP00Z1N000
SPE2DP26T21376505015544306                                    701579842003/16/26SPE2DP26T2137.pdf  0000002BTHYDROCHLOROTHIAZIDE  PHPHCZ1N000
SPE2DP26T21386505016579247                                    701579841003/16/26SPE2DP26T2138.pdf  0000002PGSUNSCREEN PREPARATI  DMK00Z1N000
SPE2DP26T21396505013856328                                    701578191403/16/26SPE2DP26T2139.pdf  0000100VITYPHOID VI POLYSACC  DDP00G1R100
SPE2DP26T21406505009262111                                    701579935003/16/26SPE2DP26T2140.pdf  0000005BTMECLIZINE HYDROCHLO  PDPSHZ1N000
SPE2DP26T21426505014623022                                    701579932903/16/26SPE2DP26T2142.pdf  0000001PGRINGER'S INJECTION,  DDP00Z1N000
SPE2DP26T21426505014623022                                    701579948103/16/26SPE2DP26T2142.pdf  0000002PGRINGER'S INJECTION,  DDP00Z1N000
SPE2DP26T21426505014623022                                    701581499603/16/26SPE2DP26T2142.pdf  0000002PGRINGER'S INJECTION,  DDP00Z1N000
SPE2DP26T21426505014623022                                    701581550103/16/26SPE2DP26T2142.pdf  0000002PGRINGER'S INJECTION,  DDP00Z1N000
SPE2DP26T21436509014933405                                    701581902603/16/26SPE2DP26T2143.pdf  0000001VIATIPAMEZOLE HYDROCH  PDPSHZ1N000
SPE2DP26T21446509014933405                                    701581904603/16/26SPE2DP26T2144.pdf  0000001VIATIPAMEZOLE HYDROCH  PDPSHZ1N000
SPE2DP26T21466509015697067                                    701581904703/16/26SPE2DP26T2146.pdf  0000001VIDEXMEDTOMIDINE HYDR  PDPSHZ1N000
SPE2DP26T21476505003697289                                    701580046903/16/26SPE2DP26T2147.pdf  0000002BTDICLOXACILLIN SODIU  DJM04Z1N000
SPE2DP26T21486505005824679                                    701580046603/16/26SPE2DP26T2148.pdf  0000002BTPILOCARPINE HYDROCH  DPP00Z1N000
SPE2DP26T21516505016414148                                    701580120903/16/26SPE2DP26T2151.pdf  0000010BTTETRACAINE HYDROCHL  DMK00Z1N000
SPE2DP26T21526505011428314                                    701580046203/16/26SPE2DP26T2152.pdf  0000004BTTRIFLURIDINE OPHTHA  DMS03Z1N000
SPE2DP26T21536505010153995                                    701580046703/16/26SPE2DP26T2153.pdf  0000008BTFLUOROMETHOLONE OPH  DIB00Z1N000
SPE2DS26T66876545013692830                                    701579860003/16/26SPE2DS26T6687.pdf  0000005EAMEDICAL SUPPLY SET,  DKJ00Z1N000
SPE2DS26T66876545013692830                                    701581542903/16/26SPE2DS26T6687.pdf  0000001EAMEDICAL SUPPLY SET,  DKJ00Z1N000
SPE2DS26T66886515013055120                                    701579950103/16/26SPE2DS26T6688.pdf  0000005PGDEPRESSOR,TONGUE     DMK00Z1N000
SPE2DS26T66916530004808286                                    701580120303/16/26SPE2DS26T6691.pdf  0000001EALIGHT,DIAGNOSTIC-EX  DOE00Z1N000
SPE2DS26T66926540012901157                                    701580118803/16/26SPE2DS26T6692.pdf  0000002PGGOGGLES,PROTECTIVE,  DTP00Z1N000
SPE2DS26T66936515016994337                                    701581906003/16/26SPE2DS26T6693.pdf  0000001CSBLOOD COLLECTION AS  DJB03Z1N000
SPE2DS26T66958465010939597                                    701580118703/16/26SPE2DS26T6695.pdf  0000001PGBAG,LAUNDRY          DST00Z1N000
SPE2DS26T66966540005988078                                    701580118503/16/26SPE2DS26T6696.pdf  0000001SECHART SET,VISION AC  PDPSFZ1N000
SPE2DS26T66976540010793516                                    701580118603/16/26SPE2DS26T6697.pdf  0000001PDCHART,AMSLER RECORD  DMD01Z1N000
SPE2DS26T66996515011972946                                    701580194003/16/26SPE2DS26T6699.pdf  0000001PGCONNECTOR,OXYGEN TU  PLCL5Z1N000
SPE2DS26T67016540016465711                                    701580112003/16/26SPE2DS26T6701.pdf  0000003PRLENS,OPHTHALMIC,COM  DMD01Z1N000
SPE2DS26T67026515013872290                                    701581904803/16/26SPE2DS26T6702.pdf  0000010PGSUTURE KIT,SURGICAL  DBW01Z1N000
SPE2DS26T67036540016468921                                    701580046403/16/26SPE2DS26T6703.pdf  0000001PRLENS,OPHTHALMIC,COM  DKJ00Z1N000
SPE2DS26T67046515015456329                                    701580227003/16/26SPE2DS26T6704.pdf  0000006EALEG CASE TABLE KIT   PDPSFZ1N000
SPE2DS26T67056515016740576                                    701580116703/16/26SPE2DS26T6705.pdf  0000003EABRACE,ANKLE          DJM04Z1N000
SPE2DS26T67066515017107962                                    701580112903/16/26SPE2DS26T6706.pdf  0000003PGWRAP,PHYSICAL THERA  DDM01Z1N000
SPE2DS26T67076540016465728                                    701580112203/16/26SPE2DS26T6707.pdf  0000003PRLENS,OPHTHALMIC,COM  DKJ00Z1N000
SPE2DS26T67096515016738476                                    701580116803/16/26SPE2DS26T6709.pdf  0000005EABRACE,ANKLE          DJM04Z1N000
SPE2DS26T67106540016465650                                    701580112303/16/26SPE2DS26T6710.pdf  0000004PRLENS,OPHTHALMIC,COM  DTP00Z1N000
SPE2DS26T67118415014993002                                    701580126003/16/26SPE2DS26T6711.pdf  0000002PRGLOVES,CHEMICAL PRO  DMD01Z1N000
SPE2DS26T67126515017109764                                    701580191303/16/26SPE2DS26T6712.pdf  0000010EAAIRWAY,NASOPHARYNGE  DDM01Z1N000
SPE2DS26T67146540016468559                                    701580046503/16/26SPE2DS26T6714.pdf  0000002PRLENS,OPHTHALMIC,COM  DTP00Z1N000
SPE2DS26T67156550017256872                                    701580123703/16/26SPE2DS26T6715.pdf  0000005BXCONTROL,BLOOD CHEMI  PDPSFZ1N000
SPE2DS26T67156550017256872                                    701581798603/16/26SPE2DS26T6715.pdf  0000004BXCONTROL,BLOOD CHEMI  PDPSFZ1N000
SPE2DS26T67156550017256872                                    701581819203/16/26SPE2DS26T6715.pdf  0000004BXCONTROL,BLOOD CHEMI  PDPSFZ1N000
SPE2DS26T67156550017256872                                    701581819403/16/26SPE2DS26T6715.pdf  0000004BXCONTROL,BLOOD CHEMI  PDPSFZ1N000
SPE2DS26T67156550017256872                                    701581824503/16/26SPE2DS26T6715.pdf  0000004BXCONTROL,BLOOD CHEMI  PDPSFZ1N000
SPE2DS26T67166545017135044                                    701580116003/16/26SPE2DS26T6716.pdf  0000001EABAG,MEDICAL INSTRUM  PDPSFZ1N000
SPE2DS26T67186540016467668                                    701580112503/16/26SPE2DS26T6718.pdf  0000001PRLENS,OPHTHALMIC,COM  PDPSFZ1N000
SPE2DS26T67196515016736619                                    701580116903/16/26SPE2DS26T6719.pdf  0000001BXNEEDLE,ACUPUNCTURE   DMK00Z1N000
SPE2DS26T67206515016938297                                    701580116303/16/26SPE2DS26T6720.pdf  0000002BXGLOVES,CHEMICAL PRO  PDPSFZ1N000
SPE2DS26T67216540017058123                                    701580116203/16/26SPE2DS26T6721.pdf  0000003EAGLASSES,EXAMINATION  DKJ00Z1N000
SPE2DS26T67226515017250189                                    701580126703/16/26SPE2DS26T6722.pdf  0000004SECONCENTRATOR,OXYGEN  DBW0101N000
SPE2DS26T67236515011295436                                    701580123503/16/26SPE2DS26T6723.pdf  0000020PGAIRWAY,NASOPHARYNGE  DJB03Z1N000
SPE2DS26T67236515011295436                                    701580408203/16/26SPE2DS26T6723.pdf  0000003PGAIRWAY,NASOPHARYNGE  DJB03Z1N000
SPE2DS26T67236515011295436                                    701580410103/16/26SPE2DS26T6723.pdf  0000001PGAIRWAY,NASOPHARYNGE  DJB03Z1N000
SPE2DS26T67236515011295436                                    701580756703/16/26SPE2DS26T6723.pdf  0000001PGAIRWAY,NASOPHARYNGE  DJB03Z1N000
SPE2DS26T67246550015571581                                    701580112703/16/26SPE2DS26T6724.pdf  0000003PGCONTROL SET,BLOOD C  PDPSFZ1N000
SPE2DS26T67246550015571581                                    701581831603/16/26SPE2DS26T6724.pdf  0000002PGCONTROL SET,BLOOD C  PDPSFZ1N000
SPE2DS26T67256630016230976                                    701580126103/16/26SPE2DS26T6725.pdf  0000001EACOLORIMETER,PHOTOEL  DOE00Z1N000
SPE2DS26T67256630016230976                                    701580818203/16/26SPE2DS26T6725.pdf  0000001EACOLORIMETER,PHOTOEL  DOE00Z1N000
SPE2DS26T67276530004808286                                    701581983403/16/26SPE2DS26T6727.pdf  0000002EALIGHT,DIAGNOSTIC-EX  DOE00Z1N000
SPE2DS26T67286515013620300                                    701580500703/16/26SPE2DS26T6728.pdf  0000002BXPLUG,EAR             PDPSFZ1N000
SPE2DS26T67296515016286601                                    701580506203/16/26SPE2DS26T6729.pdf  0000001EAADAPTER,ELECTRODE,E  PDPSFZ1N000
SPE2DS26T67306515014942085                                    701580446203/16/26SPE2DS26T6730.pdf  0000005PGGLOVE,PATIENT EXAMINIDJM04Z1N000
SPE2DS26T67316515016134307                                    701580112103/16/26SPE2DS26T6731.pdf  0000002BXSUTURE,NONABSORBABL  PDPSFZ1N000
SPE2DS26T67326515015871700                                    701580408303/16/26SPE2DS26T6732.pdf  0000002PGTAG,CASUALTY TRIAGE  PDPSFZ1N000
SPE2DS26T67326515015871700                                    701580410403/16/26SPE2DS26T6732.pdf  0000002PGTAG,CASUALTY TRIAGE  PDPSFZ1N000
SPE2DS26T67336515013738659                                    701578598803/16/26SPE2DS26T6733.pdf  0000001PGCOVER,ELECTRONIC TH  DDM01Z1N000
SPE2DS26T67336515013738659                                    701579945603/16/26SPE2DS26T6733.pdf  0000002PGCOVER,ELECTRONIC TH  DDM01Z1N000
SPE2DS26T67346515016465170                                    701580506603/16/26SPE2DS26T6734.pdf  0000001EACABLE,INVASIVE BLOO  DVS00Z1N000
SPE2DS26T67366550012215400                                    701580505203/16/26SPE2DS26T6736.pdf  0000002BTTEST STRIPS AND COL  DMD01Z1N000
SPE2DS26T67366550012215400                                    701581539703/16/26SPE2DS26T6736.pdf  0000001BTTEST STRIPS AND COL  DMD01Z1N000
SPE2DS26T67376510015326656                                    701578598703/16/26SPE2DS26T6737.pdf  0000001KTBANDAGE KIT,ELASTIC  DTP00Z1N000
SPE2DS26T67376510015326656                                    701580410003/16/26SPE2DS26T6737.pdf  0000002KTBANDAGE KIT,ELASTIC  DTP00Z1N000
SPE2DS26T67386515016232726                                    701580501903/16/26SPE2DS26T6738.pdf  0000001EATUBE,TRACHEOSTOMY    DPE00Z1N000
SPE3SE26T04847320015349790                                    701579852803/12/26SPE3SE26T0484.pdf  0000001EAVEGETABLE CUTTING A  DJP02Z1N000
SPE3SE26T04857320013144573                                    701580601603/12/26SPE3SE26T0485.pdf  0000001EACONTACTOR,MERCURY O  DJP02H1N000
SPE4A026T20305940016024565                                    701571906103/16/26SPE4A026T2030.pdf  0000002EATERMINAL,QUICK DISC  GPD00R1N000
SPE4A026T20316150012967375                                    701576271803/16/26SPE4A026T2031.pdf  0000001EABUS,CONDUCTOR        GPD00G1Y100
SPE4A026T20316150012967375                                    701576271903/16/26SPE4A026T2031.pdf  0000001EABUS,CONDUCTOR        GPD00G1Y100
SPE4A026T20324920016617264                                    701570048203/16/26SPE4A026T2032.pdf  0000001EAREMOVAL ASSEMBLY     GPD00G1N000
SPE4A026T20335307016730318                                    701561865403/16/26SPE4A026T2033.pdf  0000001EASTUD,CONTINUOUS THR  GPD00G1N000
SPE4A026T20355305016749861                                    701561865603/16/26SPE4A026T2035.pdf  0000006EASCREW,CAP,HEXAGON H  GPD00D1N000
SPE4A026T20361680015877928                                    701576324703/16/26SPE4A026T2036.pdf  0000001EAVHF UHF IFF ATC ANT  GPD00Q1L100
SPE4A026T20361680015877928                                    701576324903/16/26SPE4A026T2036.pdf  0000001EAVHF UHF IFF ATC ANT  GPD00Q1L100
SPE4A026T20361680015877928                                    701576351003/16/26SPE4A026T2036.pdf  0000001EAVHF UHF IFF ATC ANT  GPD00Q1L100
SPE4A026T20361680015877928                                    701576351103/16/26SPE4A026T2036.pdf  0000001EAVHF UHF IFF ATC ANT  GPD00Q1L100
SPE4A026T20361680015877928                                    701576351203/16/26SPE4A026T2036.pdf  0000001EAVHF UHF IFF ATC ANT  GPD00Q1L100
SPE4A026T20361680015877928                                    701576351603/16/26SPE4A026T2036.pdf  0000001EAVHF UHF IFF ATC ANT  GPD00Q1L100
SPE4A026T20361680015877928                                    701576360503/16/26SPE4A026T2036.pdf  0000001EAVHF UHF IFF ATC ANT  GPD00Q1L100
SPE4A026T20361680015877928                                    701576360603/16/26SPE4A026T2036.pdf  0000001EAVHF UHF IFF ATC ANT  GPD00Q1L100
SPE4A026T20375305016793380                                    701561866003/16/26SPE4A026T2037.pdf  0000001EASCREW,CAP,HEXAGON H  GPD00G1N000
SPE4A026T20396150016459020                                    701571901703/16/26SPE4A026T2039.pdf  0000002EACABLE ASSEMBLY,SPECIAGPD00D1N000
SPE4A026T20396150016459020                                    701571901803/16/26SPE4A026T2039.pdf  0000002EACABLE ASSEMBLY,SPECIAGPD00D1N000
SPE4A026T20405305014559616                                    701508489303/16/26SPE4A026T2040.pdf  0000048EASCREW,CAP,SOCKET HEADGPD00G1N000
SPE4A026T20415325015579667                                    701576591003/16/26SPE4A026T2041.pdf  0000010EAINSERT,SCREW THREAD  GPD00G1N000
SPE4A026T20425305016781289                                    701576201403/16/26SPE4A026T2042.pdf  0000001EASCREW,CAP,HEXAGON H  GPD00R1N000
SPE4A026T20445975016450905                                    701561859703/16/26SPE4A026T2044.pdf  0000001EAMOUNTING BASE,TIEDO  GPD00G1N000
SPE4A026T20455975014954586                                    701563392503/16/26SPE4A026T2045.pdf  0000001EARACEWAY ASSEMBLY,ME  GPD00Q1N000
SPE4A126T15585306010965054                                    701574922503/16/26SPE4A126T1558.pdf  0000168EABOLT,MACHINE         DLA00G1N000
SPE4A126T15595306016606881                                    701419164803/16/26SPE4A126T1559.pdf  0000002PGBOLT,INTERNAL WRENC  DJS04D1N000
SPE4A126T15595306016606881                                    701429182603/16/26SPE4A126T1559.pdf  0000002PGBOLT,INTERNAL WRENC  DJS04D1N000
SPE4A526T94331730011819275                                    701234543103/16/26SPE4A526T9433.pdf  0000005KTKIT,HYDRAULIC HOSES  DTD00D1N000
SPE4A526T94356110007905533                                    701564120403/16/26SPE4A526T9435.pdf  0000001EASPRING CLIP,ARMATUR  DSL00D1N000
SPE4A526T94364010013730308                                    701567947603/16/26SPE4A526T9436.pdf  0000006EALINK,CHAIN,CONNECTI  DHT00Q1N000
SPE4A526T94376150013944015                                    701449095503/16/26SPE4A526T9437.pdf  0000016EACABLE ASSEMBLY,SPEC  DCD01B1N000
SPE4A526T94394030016983418                                    701564154003/16/26SPE4A526T9439.pdf  0000001EATHIMBLE,ROPE         DHT00Z1N000
SPE4A526T94394030016983418                                    701564154203/16/26SPE4A526T9439.pdf  0000001EATHIMBLE,ROPE         DHT00Z1N000
SPE4A526T94394030016983418                                    701564154303/16/26SPE4A526T9439.pdf  0000001EATHIMBLE,ROPE         DHT00Z1N000
SPE4A526T94394030016983418                                    701564154403/16/26SPE4A526T9439.pdf  0000001EATHIMBLE,ROPE         DHT00Z1N000
SPE4A526T94394030016983418                                    701564154703/16/26SPE4A526T9439.pdf  0000001EATHIMBLE,ROPE         DHT00Z1N000
SPE4A526T94394030016983418                                    701564154903/16/26SPE4A526T9439.pdf  0000001EATHIMBLE,ROPE         DHT00Z1N000
SPE4A526T94394030016983418                                    701564155003/16/26SPE4A526T9439.pdf  0000001EATHIMBLE,ROPE         DHT00Z1N000
SPE4A526T94394030016983418                                    701564155103/16/26SPE4A526T9439.pdf  0000001EATHIMBLE,ROPE         DHT00Z1N000
SPE4A526T94404920015530731                                    701573330203/16/26SPE4A526T9440.pdf  0000006EAMOULDED PART,AIRCRA  DHT00D1N000
SPE4A526T94415340014699519                                    701481569803/16/26SPE4A526T9441.pdf  0000026EABRACKET,MOUNTING     DCD01D1N000
SPE4A526T94426840014861187                                    701566809903/16/26SPE4A526T9442.pdf  0000001EADISINFECTANT,BROAD   DKC01Z1N000
SPE4A526T94446685015788772                                    701568958903/16/26SPE4A526T9444.pdf  0000002EAGAGE,PRESSURE,DIAL   DJL01G1N000
SPE4A526T94454710014718973                                    701560971803/16/26SPE4A526T9445.pdf  0000022EATUBE,METALLIC        GPF46C1N000
SPE4A526T94462915006000901                                    701581979003/16/26SPE4A526T9446.pdf  0000021EASHAFT ASSEMBLY,OUTP  DBC01Q1N000
SPE4A526T94486695016186642                                    701564137503/16/26SPE4A526T9448.pdf  0000001EATRANSDUCER,MOTIONAL  DJB02Q1N000
SPE4A526T94496685010300260                                    701566759403/16/26SPE4A526T9449.pdf  0000001EAGAGE,PRESSURE,DIAL   DYJ00G1N000
SPE4A526T94504010014445118                                    701582579003/16/26SPE4A526T9450.pdf  0000001EAWIRE ROPE ASSEMBLY,  DSC00D1N000
SPE4A626T893T3110005165557                                    701580889703/16/26SPE4A626T893T.pdf  0000140EABEARING,BALL,ANNULAR PARFKR1Y100
SPE4A626T893U5310015761517                                    701575615303/16/26SPE4A626T893U.pdf  0000005EANUT,PLAIN,BLIND RIV  DMB03G1N000
SPE4A626T893X5320015640504                                    701565695203/16/26SPE4A626T893X.pdf  0000031EAPIN-RIVET            DSG00C1N000
SPE4A626T893Z5315013685266                                    701573633303/16/26SPE4A626T893Z.pdf  0000002EAPIN,QUICK RELEASE    GWO26G1N000
SPE4A626T894A5970004099188                                    701462919503/16/26SPE4A626T894A.pdf  0000027EAINSULATOR,PLATE      DKF00Q1N000
SPE4A626T894C3110005543264                                    701580889803/16/26SPE4A626T894C.pdf  0000121EABEARING,BALL,ANNULA  DEC00G1N000
SPE4A626T894D6240015391507                                    701438205903/16/26SPE4A626T894D.pdf  0002597EALAMP,FLUORESCENT     DKF00C1N000
SPE4A626T894E4920015630872                                    701549687703/16/26SPE4A626T894E.pdf  0000004EAEXTENSION SPRING,AI  GPP49D1N000
SPE4A626T894G4030017031998                                    701573894703/16/26SPE4A626T894G.pdf  0000008EASHACKLE              GPP49G1N000
SPE4A626T894H4920219203169                                    701564131803/16/26SPE4A626T894H.pdf  0000002EAADAPTER,STATIC TEST  GPP49D1N000
SPE4A626T894J5305011612567                                    701576269103/16/26SPE4A626T894J.pdf  0000049EASCREW,CAP,HEXAGON H  DMH01G1N000
SPE4A626T894J5305011612567                                    701576589803/16/26SPE4A626T894J.pdf  0000063EASCREW,CAP,HEXAGON H  DMH01G1N000
SPE4A626T894J5305011612567                                    701576598603/16/26SPE4A626T894J.pdf  0000035EASCREW,CAP,HEXAGON H  DMH01G1N000
SPE4A626T894K4920015535578                                    701552744903/16/26SPE4A626T894K.pdf  0000001EAIGS SOURCE ASSEMBLY  GPP49Q1N000
SPE4A626T894K4920015535578                                    701579359003/16/26SPE4A626T894K.pdf  0000001EAIGS SOURCE ASSEMBLY  GPP49Q1N000
SPE4A626T894L5970016144048                                    701176417203/16/26SPE4A626T894L.pdf  0000069EAINSULATION SLEEVING  DST00G1N000
SPE4A626T894M6350017248409                                    701438308403/16/26SPE4A626T894M.pdf  0000043EAALARM,SMOKE,AUTOMAT  DPJ00Q1Y100
SPE4A626T894P5307012124400                                    701576231803/16/26SPE4A626T894P.pdf  0000059EASTUD                 DTC01R1N000
SPE4A626T894Q9150016903329                                    701572074003/16/26SPE4A626T894Q.pdf  0000012BTPENETRATING OIL      DBC00G1N000
SPE4A626T894S5320014679298                                    701195579003/16/26SPE4A626T894S.pdf  0000455EARIVET,BLIND          DJH02G1N000
SPE4A626T894T5305017030484                                    701567995403/16/26SPE4A626T894T.pdf  0000004EASCREW,CAP,HEXAGON H  DVP00G1N000
SPE4A626T894U5305011092003                                    701574872603/16/26SPE4A626T894U.pdf  0000500EASCREW,CAP,HEXAGON H  DAJ00G1N000
SPE4A626T894W5315012113893                                    701423089503/16/26SPE4A626T894W.pdf  0000205EAPIN,QUICK RELEASE    DJH02G1N000
SPE4A626T894X5970015164430                                    701176292503/16/26SPE4A626T894X.pdf  0000070KTINSULATION SLEEVING SDNH00C1N000
SPE4A626T894Y4030002492985                                    701576277703/16/26SPE4A626T894Y.pdf  0000005EASOCKET,WIRE ROPE     GPP49G1N000
SPE4A626T894Z6150015222481                                    701289885503/16/26SPE4A626T894Z.pdf  0000013EAWIRING HARNESS,BRAN  DAR01G1N000
SPE4A626T895B5310016894603                                    701568873703/16/26SPE4A626T895B.pdf  0001918EAWASHER,FLAT          DAJ00G1N000
SPE4A626T895C3110012525025                                    701394390603/16/26SPE4A626T895C.pdf  0000013EABEARING,ROLLER,TAPE  DCW01C1N000
SPE4A626T895D6150016699664                                    701275446103/16/26SPE4A626T895D.pdf  0000059EAWIRING HARNESS       DAR01G1N000
SPE4A626T895F5305000529165                                    701573888503/16/26SPE4A626T895F.pdf  0000090EASCREW,CAP,SOCKET HE  DEE00G1N000
SPE4A626T895G5305005886922                                    701501637203/16/26SPE4A626T895G.pdf  0000090EASCREW,CAP,HEXAGON H  GPP35G1N000
SPE4A626T895H3110011054399                                    701568941903/16/26SPE4A626T895H.pdf  0000003EABEARING              GPP42G1N000
SPE4A626T895J5310002034493                                    701570053303/16/26SPE4A626T895J.pdf  0000001EANUT,PLAIN,BLIND RIV  DMG01G1N000
SPE4A626T895K5310011676333                                    701363214803/16/26SPE4A626T895K.pdf  0001530EAWASHER,RECESSED      DLH01P1N000
SPE4A626T895L5315219139883                                    701560066503/16/26SPE4A626T895L.pdf  0000205EAPIN,SHOULDER,HEADLE  DMJ00R1N000
SPE4A626T895N5310011092200                                    701580892603/16/26SPE4A626T895N.pdf  0000534EAWASHER,KEY           DAJ00G1N000
SPE4A626T895P5305012608882                                    701375755303/16/26SPE4A626T895P.pdf  0000021EASCREW,CAP,HEXAGON H  DVP00R1N000
SPE4A626T895R5306013601997                                    701581806403/16/26SPE4A626T895R.pdf  0000051EABOLT,MACHINE         DTM01L1N000
SPE4A626T895S5320013348596                                    701581806503/16/26SPE4A626T895S.pdf  0000626EAPIN-RIVET            DJH02C1N000
SPE4A626T895T5305009843022                                    701503373503/16/26SPE4A626T895T.pdf  0000024EASCREW,CAP,SOCKET HEADGPP35G1N000
SPE4A626T895V5315131162118                                    701568981703/16/26SPE4A626T895V.pdf  0000006EAPIN,SHOULDER,HEADLE  DSH01P1N000
SPE4A626T895W5325013568262                                    701560090603/16/26SPE4A626T895W.pdf  0000167EAINSERT,SCREW THREAD  DDF00B1N000
SPE4A626T895X5306002860294                                    701581806903/16/26SPE4A626T895X.pdf  0000029EABOLT,CLOSE TOLERANC  DTG00C1N000
SPE4A626T895Y5306014317461                                    701454448803/16/26SPE4A626T895Y.pdf  0000660EABOLT,MACHINE         DDF00R1N000
SPE4A626T895Z3120009432418                                    701581914703/16/26SPE4A626T895Z.pdf  0000010EABUSHING,SLEEVE       DJJ00G1N000
SPE4A626T896A5305014434736                                    701490667603/16/26SPE4A626T896A.pdf  0000001EASCREW,MACHINE        DBM01R1N000
SPE4A626T896B3120015785829                                    701581890903/16/26SPE4A626T896B.pdf  0000011EABUSHING,SLEEVE       DAT00G1N000
SPE4A626T896C5310012569251                                    701575618003/16/26SPE4A626T896C.pdf  0000091EANUT,SELF-LOCKING,WI  DAC01R1N000
SPE4A626T896E5305016416486                                    701576587803/16/26SPE4A626T896E.pdf  0000001EASCREW,MACHINE        DVM00G1N000
SPE4A626T896F3120004835339                                    701575436903/16/26SPE4A626T896F.pdf  0000002EABUSHING,SLEEVE       DKH01D1N000
SPE4A626T896F3120004835339                                    701575592003/16/26SPE4A626T896F.pdf  0000002EABUSHING,SLEEVE       DKH01D1N000
SPE4A626T896G5306016480906                                    701565722703/16/26SPE4A626T896G.pdf  0000012EABOLT,CLOSE TOLERANC  DTC01D1N000
SPE4A626T896H5306013233542                                    701576700003/16/26SPE4A626T896H.pdf  0000002EABOLT,MACHINE         DMF00G1N000
SPE4A626T896J5315016557927                                    701568898003/16/26SPE4A626T896J.pdf  0000002EAPIN,STRAIGHT,HEADED  DSB02C1N000
SPE4A626T896K5305017361610                                    701545291803/16/26SPE4A626T896K.pdf  0000004EASCREW,CAP,SOCKET HE  GPP35G1N000
SPE4A626T896M3110009932312                                    701560369703/16/26SPE4A626T896M.pdf  0000833EABEARING, BALL, ANNULADMW01G1N000
SPE4A626T896N5305015019223                                    701573324503/16/26SPE4A626T896N.pdf  0000007EASCREW,MACHINE        GPP79D1N000
SPE4A626T896Q5310008032598                                    701462831303/16/26SPE4A626T896Q.pdf  0004379EANUT,SELF-LOCKING,EX  DBM01P1N000
SPE4A626T896R5305015961564                                    701573637303/16/26SPE4A626T896R.pdf  0000010EASCREW,MACHINE        DEE00G1N000
SPE4A626T896S6150016572116                                    701565855703/16/26SPE4A626T896S.pdf  0000004EACABLE ASSEMBLY,POWE  GPP24C1N000
SPE4A626T896U5306016541600                                    701553723203/16/26SPE4A626T896U.pdf  0000005EABOLT,SHOULDER        DTC01C1N000
SPE4A626T896V5306016611611                                    701565863003/16/26SPE4A626T896V.pdf  0000008EABOLT,SHEAR           DSY00C1N000
SPE4A626T896W3110016612942                                    701576755303/16/26SPE4A626T896W.pdf  0000004EABEARING,BALL,AIRFRA  DSD00C1N000
SPE4A626T896X5310010251582                                    701573614403/16/26SPE4A626T896X.pdf  0000016EANUT,SLEEVE           DVP00G1N000
SPE4A626T896X5310010251582                                    701573889503/16/26SPE4A626T896X.pdf  0000004EANUT,SLEEVE           DVP00G1N000
SPE4A626T896Y5325010851416                                    701576767403/16/26SPE4A626T896Y.pdf  0000003EAFASTENER STUD GROMM  DPH00H1N000
SPE4A626T896Z3120014440173                                    701582088703/16/26SPE4A626T896Z.pdf  0000004EABUSHING,SLEEVE       DAM01G1N000
SPE4A626T897A5310011062382                                    701573914603/16/26SPE4A626T897A.pdf  0000002EANUT,SLEEVE           DVP00P1N000
SPE4A626T897B5320011356799                                    701577003103/16/26SPE4A626T897B.pdf  0000100EARIVET,BLIND          DJH02G1N000
SPE4A626T897D5325013109364                                    701582796803/16/26SPE4A626T897D.pdf  0000050EASTU D ASSEMBLY,TURNL DDW01R1N000
SPE4A626T897E6670008039680                                    701582874803/16/26SPE4A626T897E.pdf  0000009SEWEIGHT SET,BALANCE   GPP49D1N000
SPE4A626T897F5315010724800                                    701582874003/16/26SPE4A626T897F.pdf  0000203EAPIN,QUICK RELEASE    DSG00G1N000
SPE4A626T897G5305013049450                                    701582873403/16/26SPE4A626T897G.pdf  0000523EASCREW,SHOULDER       DAC01G1N000
SPE4A626U23115305008412948                                    100022224303/23/26SPE4A626U2311.pdf  0000378HDSCREW,MACHINE        PARFLG1N000
SPE4A626U23125305015409393                                    100022490203/23/26SPE4A626U2312.pdf  0006272EASETSCREW             PARFLR1Y100
SPE4A626U23135310007775787                                    100022490403/23/26SPE4A626U2313.pdf  0017922EANUT,SELF-LOCKING,PL  PARFLG1Y100
SPE4A726Q04571680011589661                                    701547624703/19/26SPE4A726Q0457.pdf  0000112EAPUSH ROD ASSEMBLY    DNS00C1Y100
SPE4A726Q04991560008597725                                    701438303503/19/26SPE4A726Q0499.pdf  0000003EAPANEL,WING TRAILING  DLR00C1Y100
SPE4A726Q05011560002254070                                    701454699003/19/26SPE4A726Q0501.pdf  0000004EASEAL,CHIN,OUTBOARD   DSG00C1N000
SPE4A726Q05021560016729713                                    701524558703/19/26SPE4A726Q0502.pdf  0000004EABRACKET,STRUCTURAL   DAM02C1N000
SPE4A726Q05031680016829795                                    701545491303/19/26SPE4A726Q0503.pdf  0000001EALADDER-PLATFORM,ACC  DSK00G1N000
SPE4A726T050V1650012156878                                    701573609003/16/26SPE4A726T050V.pdf  0000001EAPISTON,LINEAR ACTUA  DWE00P1N000
SPE4A726T050W5970009693226                                    701573315403/16/26SPE4A726T050W.pdf  0000002EAINSULATOR,PLATE      GPP04L1N000
SPE4A726T050W5970009693226                                    701573315503/16/26SPE4A726T050W.pdf  0000002EAINSULATOR,PLATE      GPP04L1N000
SPE4A726T050X1660016948323                                    701531310503/16/26SPE4A726T050X.pdf  0000001EADUCT ASSEMBLY,AIR C  DMM03R1N000
SPE4A726T050Y5975012215901                                    701576320303/16/26SPE4A726T050Y.pdf  0000001EACONDUIT ASSEMBLY,ME  GPA53B1N000
SPE4A726T050Y5975012215901                                    701579731503/16/26SPE4A726T050Y.pdf  0000002EACONDUIT ASSEMBLY,ME  GPA53B1N000
SPE4A726T051A1650016291605                                    700986342203/16/26SPE4A726T051A.pdf  0000006EASERVOCYLINDER        DCM00P1N000
SPE4A726T051B5940006659555                                    701566091503/16/26SPE4A726T051B.pdf  0000003EASPLICE,CONDUCTOR     DKM01L1N000
SPE4A726T051C5970008106009                                    701485266803/16/26SPE4A726T051C.pdf  0000004FTINSULATION SLEEVING,EGPP04T1N000
SPE4A726T051E5970010380592                                    701573895003/16/26SPE4A726T051E.pdf  0000001CNINSULATING COMPOUND  DCL01D1N000
SPE4A726T051F5970011266009                                    701567999303/16/26SPE4A726T051F.pdf  0000008FTINSULATION SLEEVING,EDCL01T1N000
SPE4A726T051G5940014398376                                    701573330403/16/26SPE4A726T051G.pdf  0000005EATERMINAL,LUG         DSR01C1N000
SPE4A726T051H1660016467853                                    701567993103/16/26SPE4A726T051H.pdf  0000001EAFAN,CENTRIFUGAL      DAR01B1N000
SPE4A726T051J1660010353739                                    701555337303/16/26SPE4A726T051J.pdf  0000004EADUCT ASSEMBLY,AIR C  DAM02G1H100
SPE4A726T051K5995011667193                                    701578495603/16/26SPE4A726T051K.pdf  0000004EACABLE ASSEMBLY,SPEC  DCL01G1N000
SPE4A726T051M5970010791999                                    701581481903/16/26SPE4A726T051M.pdf  0000020FTINSULATION SLEEVING,EDCL01T1N000
SPE4A726T051N1680015486716                                    701573619703/16/26SPE4A726T051N.pdf  0000001EAMOTOR PLATE ASSY,LO  DHN00C1N000
SPE4A726T051Q6210012345091                                    701560285403/16/26SPE4A726T051Q.pdf  0000012EALIGHT,INDICATOR      GPP04T1N000
SPE4A726T051R5995016580420                                    701572146303/16/26SPE4A726T051R.pdf  0000001EACABLE ASSEMBLY,SPEC  DCL01G1N000
SPE4A726T051S1560003736335                                    701553768003/16/26SPE4A726T051S.pdf  0000001EADOOR,CREW GALLEY     DMM03G1Y100
SPE4A726T051U5306007029637                                    701560688103/16/26SPE4A726T051U.pdf  0001098EABOL T,MACHINE        DNS00G1N000
SPE4A726T051V1680010218744                                    701545220103/16/26SPE4A726T051V.pdf  0000001EAHANDLE,DOOR          DMF00C1N000
SPE4A726T051W5365001175408                                    701565811603/16/26SPE4A726T051W.pdf  0001127EABUSHING BLANK        DTG01G1N000
SPE4A726T051Y5365017356289                                    701554604903/16/26SPE4A726T051Y.pdf  0000001EARING,DEE             DMR01G1N000
SPE4A726T051Z5365011792401                                    701573328903/16/26SPE4A726T051Z.pdf  0000009EASHIM                 GPA53D1N000
SPE4A726T052A5365014291387                                    701537734403/16/26SPE4A726T052A.pdf  0000004EASHIM                 DIS00G1N000
SPE4A726T052B5365011781707                                    701573328003/16/26SPE4A726T052B.pdf  0000013EAPLUG,MACHINE THREAD  DTG01D1N000
SPE4A726T052D3655008647497                                    701559992003/16/26SPE4A726T052D.pdf  0000213EADISC ASSEMBLY,VALVE  DMR01C1N000
SPE4A726T052E5365011781706                                    701573326403/16/26SPE4A726T052E.pdf  0000018EAPLUG,MACHINE THREAD  DCD01D1N000
SPE4A726T052F1560007805693                                    701560737903/16/26SPE4A726T052F.pdf  0000004EADUCT,AIR,FLOOR HEAT  DAR01B1N000
SPE4A726T052H1560007805692                                    701560740703/16/26SPE4A726T052H.pdf  0000003EADUCT,AIR,FLOOR HEAT  DSB01B1N000
SPE4A726T052J6150014404387                                    701560397503/16/26SPE4A726T052J.pdf  0000014EACABLE ASSEMBLY,SPEC  GPP04G1Y100
SPE4A726T052L5895014677784                                    701582873103/16/26SPE4A726T052L.pdf  0000029EACONTROL-POWER SUPPL  DIS00R1N000
SPE7L026T01903040000830264                                    701554611003/19/26SPE7L026T0190.pdf  0000005EALEVER,REMOTE CONTRO  PLCLBG1N000
SPE7L126Q08503010016237765                                    701441598903/23/26SPE7L126Q0850.pdf  0000014EASPIDER,UNIVERSAL JO  PLCL7D1N000
SPE7L126T176W5305016411255                                    007562942503/19/26SPE7L126T176W.pdf  0000013EASCREW,CAP,SOCKET HE  PLCL5G1N000
SPE7L126T176Z5340017190671                                    701579814303/19/26SPE7L126T176Z.pdf  0000001EACOLLAR,LOCKING RING  PLCL6G1N000
SPE7L126T177A5360008457131                                    701560291103/19/26SPE7L126T177A.pdf  0000221EASPRING,HELICAL,COMP  PLCL6R1N000
SPE7L126T177B5355016703678                                    701285850803/19/26SPE7L126T177B.pdf  0000002EAKNOB                 PLCL6G1N000
SPE7L126T177D5340008068422                                    701141519003/19/26SPE7L126T177D.pdf  0000024EACONNECTOR,ROD END    PLCL6C1N000
SPE7L126T177E5355014519354                                    701568620803/19/26SPE7L126T177E.pdf  0000150EAKNOB                 PLCL6G1N000
SPE7L126T177F5360016886404                                    701579879803/19/26SPE7L126T177F.pdf  0000001EASPRING,HELICAL,COMP  PLCL6G1N000
SPE7L126T177G5330016087218                                    701579380403/19/26SPE7L126T177G.pdf  0000001EAGASKET SET           PLCL6R1N000
SPE7L126T177H5330016264519                                    701579379003/19/26SPE7L126T177H.pdf  0000001EAGASKET               PLCL6D1N000
SPE7L126T177J3010015388165                                    701579888503/19/26SPE7L126T177J.pdf  0000001EAACTUATOR,ELECTRO-ME  PLCL6D1N000
SPE7L126T177J3010015388165                                    701581578403/19/26SPE7L126T177J.pdf  0000001EAACTUATOR,ELECTRO-ME  PLCL6D1N000
SPE7L126T177J3010015388165                                    701581600103/19/26SPE7L126T177J.pdf  0000001EAACTUATOR,ELECTRO-ME  PLCL6D1N000
SPE7L126T177L5305015827423                                    701442187603/19/26SPE7L126T177L.pdf  0000027EASCREW,RETAINING,AIR  PLCL7D1N000
SPE7L126T177M2540012468284                                    701387669903/19/26SPE7L126T177M.pdf  0000007AYRACK ASSEMBLY,MISSI  PLCL6G1N000
SPE7L126T177N55719LASRINGDIV                                  701581734803/19/26SPE7L126T177N.pdf  0000001KTNON-NSN TEAM         PLCL6H2N000
SPE7L126T177P5360003005694                                    701560163403/19/26SPE7L126T177P.pdf  0000010EASPRING,HELICAL,EXTE  PLCL6C1N000
SPE7L126T177Q2510011637362                                    701573638603/19/26SPE7L126T177Q.pdf  0000001EASIDE RACK,VEHICLE B  PLCL6D1N000
SPE7L126T177R5330011539110                                    701264321203/19/26SPE7L126T177R.pdf  0000006EAPACKING,PREFORMED    PLCL6P1N000
SPE7L126T177T5340016943235                                    701518817203/19/26SPE7L126T177T.pdf  0000004EABRACKET,MOUNTING     PLCL6G1N000
SPE7L126T177U5360002099799                                    701560048603/19/26SPE7L126T177U.pdf  0000051EASPRING,HELICAL,COMP  PLCL6G1N000
SPE7L126T177V5340006229666                                    701569795003/19/26SPE7L126T177V.pdf  0000022EAHANDLE,DOOR          PLCL6G1N000
SPE7L126T177W2815009330799                                    701551413103/19/26SPE7L126T177W.pdf  0000004EACONNECTING ROD,PIST  PLCL6B1N000
SPE7L126T177X5365017286258                                    701579988703/19/26SPE7L126T177X.pdf  0000002EABUSHING,SLEEVE       PLCL6Z1N000
SPE7L126T177Y5360016242623                                    701523134903/19/26SPE7L126T177Y.pdf  0000502EASPRING,HELICAL,COMP  PLCL5G1N000
SPE7L126T177Z5315017276779                                    701553654103/19/26SPE7L126T177Z.pdf  0000003EAPIN,QUICK RELEASE    PLCL7D1N000
SPE7L126T178A5340016689721                                    701579374003/19/26SPE7L126T178A.pdf  0000001EABRACKET,MOUNTING     PLCL6D1N000
SPE7L126T178C5340008546729                                    701560069603/19/26SPE7L126T178C.pdf  0003750EACLAMP,LOOP           PLCL6G1N000
SPE7L126T178D5340009477024                                    701560489703/19/26SPE7L126T178D.pdf  0000016EASNAP HOOK            PLCL6G1N000
SPE7L126T178E5340006403996                                    701568906703/19/26SPE7L126T178E.pdf  0000025EASTRAPPING AND SEALI  PLCL6R1N000
SPE7L126T178F5340008639424                                    701505183103/19/26SPE7L126T178F.pdf  0000002EACOVER,ACCESS         PLCL6C1N000
SPE7L126T178G5331009416901                                    701524819503/19/26SPE7L126T178G.pdf  0000008EAO-RING               PLCLDT1N000
SPE7L126T178H5331013748601                                    701180514903/19/26SPE7L126T178H.pdf  0000025EAO-RING               PLCLDL1N000
SPE7L126T178K5340015886994                                    701573639703/19/26SPE7L126T178K.pdf  0000001EABRACKET,MOUNTING     PLCL6G1N000
SPE7L126T178L5340016414047                                    701577596103/19/26SPE7L126T178L.pdf  0000002EACONNECTOR,ROD END    PLCL6G1N000
SPE7L126T178M5340015674583                                    701578423603/19/26SPE7L126T178M.pdf  0000001EAPLATE,MOUNTING       PLCL6Z1N000
SPE7L126T178P5330124224362                                    701580246503/19/26SPE7L126T178P.pdf  0000001EASEAL,NONMETALLIC SP  PLCL6Q1N000
SPE7L126T178Q5360005508765                                    701523276103/19/26SPE7L126T178Q.pdf  0000003EASPRING,HELICAL,COMPREPLCL6P1N000
SPE7L126T178S5360012077288                                    701523284703/19/26SPE7L126T178S.pdf  0000075EASPRING               PLCL6D1N000
SPE7L126T178T5360123455373                                    701523299903/19/26SPE7L126T178T.pdf  0000116EASPRING,HELICAL,EXTE  PLCL6R1N000
SPE7L126T178U5360012071381                                    701523284403/19/26SPE7L126T178U.pdf  0000164EASPRING               PLCL6D1N000
SPE7L126T178W5360012078997                                    701523284803/19/26SPE7L126T178W.pdf  0000022EASPRING               PLCL6D1N000
SPE7L126T178X5360013035267                                    701523318503/19/26SPE7L126T178X.pdf  0000039EASPRING,GAS           PLCL6L1N000
SPE7L126T178Y5331017321136                                    701580291403/19/26SPE7L126T178Y.pdf  0000002EAO-RING               PLCL6Z1N000
SPE7L126T179B5340016708433                                    701561860403/19/26SPE7L126T179B.pdf  0000003EAPAD,CUSHIONING       PLCL6G1N000
SPE7L126T179B5340016708433                                    701571897203/19/26SPE7L126T179B.pdf  0000002EAPAD,CUSHIONING       PLCL6G1N000
SPE7L126T179C5331016825767                                    701582457803/19/26SPE7L126T179C.pdf  0000008EAO-RING               PLCL6T1N000
SPE7L126T179D2590001165243                                    701582765503/19/26SPE7L126T179D.pdf  0000479EACAP,FILLER OPENING   PLCL6G1N000
SPE7L126T179F55719TFP51378CS                                  701583063203/19/26SPE7L126T179F.pdf  0000001KTNON-NSN TEAM         PLCL6H2N000
SPE7L126T179G5555511/4TORQIN                                  701583009603/19/26SPE7L126T179G.pdf  0000200PCNON-NSN TEAM         PLCL6H2N000
SPE7L126U02421005015485193                                    100022535603/23/26SPE7L126U0242.pdf  0000020EASIGHT,REAR           PLCLSD1N000
SPE7L326T65931095017001910                                    701545904603/19/26SPE7L326T6593.pdf  0000001EAHOLSTER,PISTOL       PLCL6Z1N000
SPE7L326T65931095017001910                                    701547878703/19/26SPE7L326T6593.pdf  0000005EAHOLSTER,PISTOL       PLCL6Z1N000
SPE7L326T65952590016520876                                    701560701003/19/26SPE7L326T6595.pdf  0000008EAPLATE,MOUNTING       PLCL6G1N000
SPE7L326T65962541012678115                                    701505362603/19/26SPE7L326T6596.pdf  0000003EABOX,AMMUNITION STOW  PLCLSG1N000
SPE7L326T65975930001892401                                    701505271403/19/26SPE7L326T6597.pdf  0000004EASWITCH SUBASSEMBLY   PLCL6C1N000
SPE7L326T65992590016529672                                    701398487503/19/26SPE7L326T6599.pdf  0000006EAWIRING HARNESS,BRAN  PLCL6D1N000
SPE7L326T66012510015895377                                    701465533203/19/26SPE7L326T6601.pdf  0000008EAFRAME,STRUCTURAL,VE  PLCL6D1N000
SPE7L326T66022510017139985                                    700843412903/19/26SPE7L326T6602.pdf  0000001EAPANEL,BODY,VEHICULA  PLCL6G1Y100
SPE7L326T66022510017139985                                    700843413003/19/26SPE7L326T6602.pdf  0000001EAPANEL,BODY,VEHICULA  PLCL6G1Y100
SPE7L326T66032530999939180                                    701280080403/19/26SPE7L326T6603.pdf  0000001EACAP,GREASE           PLCL6D1N000
SPE7L326T66052510015425310                                    701523349603/19/26SPE7L326T6605.pdf  0000069EAMOUNT,CAB            PLCL6D1N000
SPE7L426T29544720011705006                                    009458475803/19/26SPE7L426T2954.pdf  0000097EAHOSE,PREFORMED       PLCL5D1N000
SPE7L426T29591020015275288                                    701551382203/19/26SPE7L426T2959.pdf  0000001EAPISTON,GUN GAS CYLI  PLCL6G1N000
SPE7L426T29591020015275288                                    701563396303/19/26SPE7L426T2959.pdf  0000002EAPISTON,GUN GAS CYLI  PLCL6G1N000
SPE7L426T29601020011804930                                    701564144603/19/26SPE7L426T2960.pdf  0000001EARESTRAINER,PROJECTI  PLCL6G1N000
SPE7L426T29612540015785408                                    701569832303/19/26SPE7L426T2961.pdf  0000043EASEAT,VEHICULAR       PLCL6B1Y100
SPE7L426T29631440013549843                                    701563402603/19/26SPE7L426T2963.pdf  0000001EASHIELD,GUIDED MISSI  PLCL6C1N000
SPE7L426U04866650001051418                                    100022593203/23/26SPE7L426U0486.pdf  0000129EAREFRACTOMETER        PLCL6D1R100
SPE7L426U04876145015191838                                    100022647803/23/26SPE7L426U0487.pdf  0000025EACABLE,POWER,ELECTRI  PLCL6D1N000
SPE7L426U04882530012662097                                    100022673603/23/26SPE7L426U0488.pdf  0000182SEBRAKE SHOE SET       PLCL6R1Y100
SPE7L526T23292920017290537                                    701300462503/19/26SPE7L526T2329.pdf  0000018EAREGULATOR-CONTROL,S  PLCL6C1N000
SPE7L726T21226135011152867                                    701568983803/19/26SPE7L726T2122.pdf  0000022PGBATTERY,NONRECHARGEABPLCL6G1N000
SPE7L726T21246130200040163                                    701569740803/19/26SPE7L726T2124.pdf  0000011EAPOWER SUPPLY         PLCL4D1N000
SPE7L726T21256130200042325                                    701569740703/19/26SPE7L726T2125.pdf  0000002EACONTROL,POWER SUPPL  DKN00D1Y100
SPE7L726T21266130015658818                                    701569787703/19/26SPE7L726T2126.pdf  0000027EAPOWER SUPPLY SET     PLCL6D1N000
SPE7L726T21286140013468316                                    701569827003/19/26SPE7L726T2128.pdf  0000192EABATTERY,STORAGE      DKN00P1N000
SPE7L726T21296650015219877                                    701569769503/19/26SPE7L726T2129.pdf  0000033EACASE,OPTICAL INSTRU  DKN00G1N000
SPE7L726T21306130016245493                                    701569899603/19/26SPE7L726T2130.pdf  0000008EAPOWER SUPPLY         PLCL4C1N000
SPE7L726T21316130015625439                                    701553609603/19/26SPE7L726T2131.pdf  0000016EADIODE,SCR,AIRCRAFT,  PLCL6P1N000
SPE7L726T21336130015625428                                    701238186903/19/26SPE7L726T2133.pdf  0000003EACONTACTOR,28VDC,270  PLCL6D1N000
SPE7L726T21341010001532732                                    701580291903/19/26SPE7L726T2134.pdf  0000001EAARM                  PLCL6G1N000
SPE7L726T21356140017137559                                    701572920003/19/26SPE7L726T2135.pdf  0000003EABATTERY,STORAGE      DKN00D1Y100
SPE7LX26U46766130001485793                                    100022666703/23/26SPE7LX26U4676.pdf  0000001EARECTIFIER,DIMMER     PLCL3C1R100
SPE7LX26U46776130015625472                                    100022678603/23/26SPE7LX26U4677.pdf  0000024EAFILTER,INTAKE,AIRCR  PLCL3D1N000
SPE7M026T54346650015345785                                    701568928803/19/26SPE7M026T5434.pdf  0000064EAPERISCOPE SUBASSEMB  PLCL3G1Y100
SPE7M026T54355935014471012                                    701571894403/19/26SPE7M026T5435.pdf  0000002EABACKSHELL,ELECTRICA  PMCM4T1N000
SPE7M026T54374820015695362                                    701426252803/19/26SPE7M026T5437.pdf  0000024EAVALVE,GATE           PMCM6G1Y100
SPE7M026T54385950002593063                                    701542777103/19/26SPE7M026T5438.pdf  0000006EATRANSFORMER,POWER A  PMCM7L1N000
SPE7M026T54395950013735034                                    701481238803/19/26SPE7M026T5439.pdf  0000001EATRANSFORMER,POWER    C0146B1N000
SPE7M026T54404820013702947                                    701387840903/19/26SPE7M026T5440.pdf  0000109KTREPAIR KIT,VALVE     PMCM6D1Y100
SPE7M026T54425998011067681                                    701579379503/19/26SPE7M026T5442.pdf  0000001EAHOLDER,ELECTRICAL C  C0146D1N000
SPE7M026T54432040010336706                                    701569889503/19/26SPE7M026T5443.pdf  0000002EACOVER ASSEMBLY,SHOR  PLCL3H1N000
SPE7M026T54445950010949685                                    701547381103/19/26SPE7M026T5444.pdf  0000001EACOIL ASSEMBLY        PMCM7H1N000
SPE7M026T54466110016288407                                    701581789603/19/26SPE7M026T5446.pdf  0000001EADISTRIBUTION BOX     PMCMSD1N000
SPE7M026T54478010015987107                                    701579941303/16/26SPE7M026T5447.pdf  0000002GLDECK COATING,HIGH D  PMCM2T1N000
SPE7M026T54485935014753094                                    700965263803/19/26SPE7M026T5448.pdf  0000001EACONNECTOR,PLUG,ELEC  PLCL5G1N000
SPE7M026T54495955011807406                                    701569746303/19/26SPE7M026T5449.pdf  0000001EAOSCILLATOR,NONCRYST  PMCM4G1N000
SPE7M026T54514730016614196                                    701580246203/19/26SPE7M026T5451.pdf  0000001EACOUPLING HALF,QUICK  PMCM5D1N000
SPE7M026T54526030016945817                                    701580246803/19/26SPE7M026T5452.pdf  0000001EATRANSMITTER,LIGHT S  PMCM4C1N000
SPE7M026T54534730016936899                                    701572589503/19/26SPE7M026T5453.pdf  0000003EAPLATE,ORIFICE,FLUID  PMCM5G1Y100
SPE7M026T54555360013047936                                    701523322603/19/26SPE7M026T5455.pdf  0000063EASPRING,HELICAL,TORS  PLCL3L1N000
SPE7M026T54565360013031661                                    701523316903/19/26SPE7M026T5456.pdf  0001026EASPRING,SPIRAL,TORSI  PLCL3R1Y100
SPE7M026T54574730016893819                                    701564145903/19/26SPE7M026T5457.pdf  0000001EANIPPLE,PIPE          PMCM6D1N000
SPE7M026T54586110124234765                                    701580333703/19/26SPE7M026T5458.pdf  0000001EACONTACTOR,MAGNETIC   PMCMSD1N000
SPE7M026T54596625014968422                                    701580333903/19/26SPE7M026T5459.pdf  0000001EALEAD,TEST            PMCM4D1N000
SPE7M026T54605955004515529                                    701564146203/19/26SPE7M026T5460.pdf  0000001EACRYSTAL UNIT,QUARTZ  PMCM4L1N000
SPE7M026T54615955010435963                                    701568525003/19/26SPE7M026T5461.pdf  0000001EACRYSTAL UNIT,QUARTZ  PMCM7R1N000
SPE7M026T54622040017234755                                    701563390103/19/26SPE7M026T5462.pdf  0000001EAGUIDE BLOCK,DOOR,MA  PMCM7Q1N000
SPE7M126Q07116080016821776                                    700663282203/18/26SPE7M126Q0711.pdf  0000060EACABLE ASSEMBLY SET,  PMCMKQ1N000
SPE7M126Q07125915015863023                                    701199158703/23/26SPE7M126Q0712.pdf  0000001EAFILTER,RADIO FREQUE  PMCM7G1N000
SPE7M126T67956145012332367                                    701560235703/19/26SPE7M126T6795.pdf  0002500FTCABLE,POWER,ELECTRI  PMCM4G1N000
SPE7M126T67964730001720042                                    701541943503/19/26SPE7M126T6796.pdf  0000104PGFITTING,LUBRICATION  PMCM7G1R100
SPE7M126T67984310013138692                                    701570039103/19/26SPE7M126T6798.pdf  0000002EARING,PISTON          PMCMDD1N000
SPE7M126T67996080015599712                                    701569772303/19/26SPE7M126T6799.pdf  0000039EAREPAIR KIT,FIBER OP  PMCMVC1L100
SPE7M126T68006145016576041                                    701569881803/19/26SPE7M126T6800.pdf  0000005EACABLE,SPECIAL PURPO  PMCM4Q1N000
SPE7M126T68016020016988460                                    701569764003/19/26SPE7M126T6801.pdf  0000016EACABLE ASSEMBLY,FIBE  PMCMVC1N000
SPE7M126T68026145017110876                                    701441789703/19/26SPE7M126T6802.pdf  0000264EACABLE,SPECIAL PURPO  PMCM6C1N000
SPE7M126T68046110012322060                                    701504968903/19/26SPE7M126T6804.pdf  0000003EACONTACTOR-3PST-NO    PMCM7D1Y100
SPE7M126T68056145017110504                                    701524590903/19/26SPE7M126T6805.pdf  0000200EACABLE,SPECIAL PURPO  PMCM4C1N000
SPE7M126T68066145017110912                                    701560025703/19/26SPE7M126T6806.pdf  0000105EAWIRE,ELECTRICAL      PMCM4C1N000
SPE7M126T68076145012020663                                    701580266103/19/26SPE7M126T6807.pdf  0000006FTCABLE,POWER,ELECTRI  PMCM4T1N000
SPE7M126T68084810016576708                                    701518643403/19/26SPE7M126T6808.pdf  0000001EAPARTS KIT,PILOT CON  PMCM5D1N000
SPE7M126T68096145017110810                                    701560027703/19/26SPE7M126T6809.pdf  0000105EAWIRE,ELECTRICAL      PMCM4C1N000
SPE7M126T68106020016902490                                    701481479003/19/26SPE7M126T6810.pdf  0000001EACABLE ASSEMBLY,FIBE  PMCMVG1N000
SPE7M126T68114820014537043                                    701570864403/19/26SPE7M126T6811.pdf  0000001EAVALVE,ANGLE          PMCM5D1N000
SPE7M126T68136110150370562                                    701566095703/19/26SPE7M126T6813.pdf  0000002EAREGULATOR SET,VOLTA  PMCMVD1N000
SPE7M126T68136110150370562                                    701566095803/19/26SPE7M126T6813.pdf  0000002EAREGULATOR SET,VOLTA  PMCMVD1N000
SPE7M126T68136110150370562                                    701579363103/19/26SPE7M126T6813.pdf  0000001EAREGULATOR SET,VOLTA  PMCMVD1N000
SPE7M126T68146145008520620                                    701580597603/19/26SPE7M126T6814.pdf  0000200FTWIRE,ELECTRICAL      PMCM4T1N000
SPE7M126T68154320013573237                                    701582446403/19/26SPE7M126T6815.pdf  0000005EAPLUNGER              PMCMDD1N000
SPE7M126U21525998012307809                                    100022478503/23/26SPE7M126U2152.pdf  0000009EACIRCUIT CARD ASSEMB  PMCM6R1Y100
SPE7M126U21535999012379901                                    100022484003/23/26SPE7M126U2153.pdf  0000133EACONNECTOR-SWITCH     PMCM6R1Y100
SPE7M126U21552590016067402                                    100022562703/23/26SPE7M126U2155.pdf  0000053EAWIRING HARNESS,BRAN  PMCM6D1N000
SPE7M226T29135935014370164                                    701579110703/19/26SPE7M226T2913.pdf  0000010EACONNECTOR,PLUG,ELEC  PMCM5T1N000
SPE7M226T29155930013508369                                    701579113603/19/26SPE7M226T2915.pdf  0000003EASWITCH ASSEMBLY      PMCM5C1N000
SPE7M226T29165935012266767                                    701579115203/19/26SPE7M226T2916.pdf  0000171EACONNECTOR,PLUG,ELEC  PMCM5T1N000
SPE7M226T29172910015439267                                    701579119703/19/26SPE7M226T2917.pdf  0000462EAFILTER ELEMENT,FLUI  PMCM5Z1N000
SPE7M226T29186110014950005                                    701560282103/19/26SPE7M226T2918.pdf  0000002EAPANEL,POWER DISTRIB  PMCMVC1N000
SPE7M226T29196110013678923                                    701579113503/19/26SPE7M226T2919.pdf  0000005EACONTACTOR,MAGNETIC   PMCM5L1N000
SPE7M326T35714730003392581                                    701560214103/19/26SPE7M326T3571.pdf  0000002EASTRAINER,SEDIMENT    PMCMDD1N000
SPE7M326T35724730001393951                                    701569777603/19/26SPE7M326T3572.pdf  0000024EANUT,TUBE COUPLING    PMCMDG1N000
SPE7M326T35735340009823597                                    701481344703/19/26SPE7M326T3573.pdf  0000847EACLAMP,LOOP           PMCM5C1N000
SPE7M326T35744730008041589                                    700876629203/19/26SPE7M326T3574.pdf  0000104EAUNION,SCAVENGE       PMCMDC1N000
SPE7M326T35754730016696698                                    701533183203/19/26SPE7M326T3575.pdf  0000001EAREDUCER,BOSS         PMCMDZ1N000
SPE7M326T35764730004596077                                    701523388503/19/26SPE7M326T3576.pdf  0000361EAPLUG ASSEMBLY,END P  PMCMDC1N000
SPE7M326T35774730011807251                                    700887044903/19/26SPE7M326T3577.pdf  0000072EACOUPLING HALF,QUICK  PMCMDC1Y100
SPE7M326T35794730015165402                                    701523414103/19/26SPE7M326T3579.pdf  0000282EAADAPTER,STRAIGHT,PI  PMCMDD1N000
SPE7M326T35804730015101827                                    701513538303/19/26SPE7M326T3580.pdf  0000001EATEE,PIPE TO TUBE     PMCMDD1N000
SPE7M326T35814730015231988                                    700673055503/19/26SPE7M326T3581.pdf  0000013EATHREAD PIECE,UNION   PMCMDD1N000
SPE7M426T76035340009671791                                    701569903303/19/26SPE7M426T7603.pdf  0000009EAHINGE,ACCESS DOOR    PMCM4G1N000
SPE7M426T76045360008441571                                    701560298203/19/26SPE7M426T7604.pdf  0000321EASPRING,HELICAL,COMP  PMCM4R1N000
SPE7M426T76054710000655528                                    701365557703/19/26SPE7M426T7605.pdf  0000008EATUBE ASSEMBLY,METAL  PMCM4P1N000
SPE7M426T76064730000072199                                    701560266703/19/26SPE7M426T7606.pdf  0002368EAADAPTER,STRAIGHT,TU  PMCM4T1N000
SPE7M426T76073020010840556                                    701560452903/19/26SPE7M426T7607.pdf  0000106EAGEAR,SPUR            PMCM4G1N000
SPE7M426T76082040014981577                                    701569738203/19/26SPE7M426T7608.pdf  0000001EAOUTBOARD SPRING CAN  PMCM7G1N000
SPE7M426T76112040011377887                                    701569893603/19/26SPE7M426T7611.pdf  0000015EACHANNEL,PROBE-CARRI  PMCM7G1N000
SPE7M426T76124710002898005                                    701041690503/19/26SPE7M426T7612.pdf  0002864FTTUBE,METALLIC        PMCM7G1R100
SPE7M426T76134720011928100                                    701300423003/19/26SPE7M426T7613.pdf  0000015AYHOSE ASSEMBLY,NONME  PMCMDL1N000
SPE7M426T76154720016055531                                    701442263003/19/26SPE7M426T7615.pdf  0000011EATUBING ASSEMBLY,NON  PMCMDB1N000
SPE7M426T76164720016425954                                    701387893403/19/26SPE7M426T7616.pdf  0000053EAHOSE ASSEMBLY,NONME  PMCM2G1N000
SPE7M426T76172040015013323                                    701560152103/19/26SPE7M426T7617.pdf  0000001EASEAL ASSEMBLY,RETRA  PMCM7G1N000
SPE7M426T76194730013263048                                    701569863603/19/26SPE7M426T7619.pdf  0000005EAUNION,TUBE           PMCM4L1N000
SPE7M426T76204730006221617                                    701553584003/19/26SPE7M426T7620.pdf  0000087PGBUSHING,PIPE         PMCM4T1N000
SPE7M426T76214720016524399                                    701253847403/19/26SPE7M426T7621.pdf  0000021EAHOSE ASSEMBLY,NONME  PMCMDG1N000
SPE7M426T76224720016780240                                    701376585303/19/26SPE7M426T7622.pdf  0000003EAHOSE ASSEMBLY,NONME  PMCMDB1N000
SPE7M426T76232040009125769                                    701568886603/19/26SPE7M426T7623.pdf  0000006EADOOR,METAL,MARINE S  PMCM7G1Y100
SPE7M426T76242040012535477                                    701569822703/19/26SPE7M426T7624.pdf  0000014EADOOR,METAL,MARINE S  PMCM7G1Y100
SPE7M426T76254710011252833                                    701084712503/19/26SPE7M426T7625.pdf  0000001EATUBE ASSEMBLY,FUEL   PMCM7R1N000
SPE7M426T76264730008227655                                    009019981303/19/26SPE7M426T7626.pdf  0000169EACOUPLING,PIPE        PMCM5G1N000
SPE7M426T76284720015138549                                    701413047503/19/26SPE7M426T7628.pdf  0000069EAHOSE ASSEMBLY,NONME  PMCM6R1N000
SPE7M426T76294720016176003                                    701300181703/19/26SPE7M426T7629.pdf  0000010EAHOSE ASSEMBLY,NONME  PMCMDL1N000
SPE7M426T76304720012664239                                    701137857603/19/26SPE7M426T7630.pdf  0000011EAHOSE ASSEMBLY,NONME  PMCM6G1N000
SPE7M426T76314710008814821                                    701023028203/19/26SPE7M426T7631.pdf  0000008EATUBE ASSEMBLY,METAL  PMCM5C1N000
SPE7M426T76324720012664239                                    701548452003/19/26SPE7M426T7632.pdf  0000008EAHOSE ASSEMBLY,NONME  PMCM6G1N000
SPE7M426T76334720012846300                                    701505466603/19/26SPE7M426T7633.pdf  0000004EAHOSE ASSEMBLY,NONME  PMCMDG1N000
SPE7M426T76344720015771133                                    701327351003/19/26SPE7M426T7634.pdf  0000013EAHOSE,NONMETALLIC     PMCM6C1N000
SPE7M426T76354720013300593                                    701320989903/19/26SPE7M426T7635.pdf  0000001EAHOSE ASSEMBLY,METAL  PMCMDG1N000
SPE7M426T76374710012727827                                    701553594903/19/26SPE7M426T7637.pdf  0000009EATUBE ASSEMBLY,METAL  PMCM4G1N000
SPE7M426T76385360013309571                                    701523395303/19/26SPE7M426T7638.pdf  0000013EASPRING,HELICAL,COMP  PMCM4R1N000
SPE7M426T76392030014641183                                    701568010403/19/26SPE7M426T7639.pdf  0000001EASTEERING ARM ASSEMB  PMCM7D1N000
SPE7M426T76404730009305392                                    701523438703/19/26SPE7M426T7640.pdf  0000496EAADAPTER,STRAIGHT,TU  PMCM4G1N000
SPE7M426T76412040017143700                                    701562180003/19/26SPE7M426T7641.pdf  0000001EACYLINDER ASSEMBLY,R  PMCM7Z1N000
SPE7M426T76412040017143700                                    701568604603/19/26SPE7M426T7641.pdf  0000001EACYLINDER ASSEMBLY,R  PMCM7Z1N000
SPE7M426T76424730014734409                                    701523341503/19/26SPE7M426T7642.pdf  0000013EASLEEVE,CONNECTING,N  PMCM4R1N000
SPE7M426T76434710015542636                                    701569798603/19/26SPE7M426T7643.pdf  0000015EATUBE,METALLIC        PMCM4B1N000
SPE7M426T76442040016673428                                    701559064603/19/26SPE7M426T7644.pdf  0000001EADOOR,METAL,MARINE S  PMCM7G1Y100
SPE7M426U02504710013988361                                    100022672803/23/26SPE7M426U0250.pdf  0000003EAPIPE ASSEMBLY,METAL  PMCMFC1Y100
SPE7M526T83265965016875667                                    701271831303/19/26SPE7M526T8326.pdf  0000007EALOUDSPEAKER ASSEMBL  DCN00C1N000
SPE7M526T83275955014537732                                    700634092303/19/26SPE7M526T8327.pdf  0000001EAOSCILLATOR,CRYSTAL   PMCMTG1N000
SPE7M526T83295925011937246                                    701111707703/19/26SPE7M526T8329.pdf  0000010EACIRCUIT BREAKER      C0135R1N000
SPE7M526T83306110015052074                                    701569793203/19/26SPE7M526T8330.pdf  0000044EACONTACTOR,MAGNETIC   PMCM6Q1N000
SPE7M526T83316110015460136                                    701569805703/19/26SPE7M526T8331.pdf  0000036EACONTACTOR,MAGNETIC   PMCM6C1N000
SPE7M526T83325945013084230                                    701560579403/19/26SPE7M526T8332.pdf  0000066EAARMATURE,RELAY       PMCM4C1N000
SPE7M526T83335930003278000                                    701523078503/19/26SPE7M526T8333.pdf  0000017EASWITCH,THERMOSTATIC  PMCM5R1Y100
SPE7M526T83345920002960679                                    701441701503/19/26SPE7M526T8334.pdf  0000981EAFUSE,CARTRIDGE       PMCM7T1N000
SPE7M526T83355935006654394                                    701347312403/19/26SPE7M526T8335.pdf  0000632EAPLU G,TIP            PMCM7C1N000
SPE7M526T83365935002218320                                    700817848503/19/26SPE7M526T8336.pdf  0000001EACONNECTOR,PLUG,ELEC  PMCM4D1N000
SPE7M526T83385935010935199                                    701441699303/19/26SPE7M526T8338.pdf  0000051EACONNECTOR,RECEPTACL  PMCMST1N000
SPE7M526T83395935006288087                                    701560840703/19/26SPE7M526T8339.pdf  0000005EACONNECTOR,PLUG,ELEC  PMCMSC1N000
SPE7M526T83405935008815164                                    701553514803/19/26SPE7M526T8340.pdf  0000003EACONNECTOR,PLUG,ELEC  PMCMSZ1N000
SPE7M526T83415935007212561                                    701523146003/19/26SPE7M526T8341.pdf  0000060EACONNECTOR,PLUG,ELEC  PMCM5L1N000
SPE7M526T83425996013373516                                    701553673703/19/26SPE7M526T8342.pdf  0000010EAAMPLIFIER,RADIO FRE  PMCM4B1Y100
SPE7M526T83435935016147665                                    701442313303/19/26SPE7M526T8343.pdf  0000072EACONNECTOR,PLUG,ELEC  PMCMSR1N000
SPE7M526T83445935015014612                                    701441517303/19/26SPE7M526T8344.pdf  0000012EACONNECTOR,PLUG,ELEC  PMCM5T1N000
SPE7M526T83455935009786735                                    701568953103/19/26SPE7M526T8345.pdf  0000027EACONNECTOR,PLUG,ELEC  PMCMSG1N000
SPE7M526T83475915010980006                                    701560896603/19/26SPE7M526T8347.pdf  0000020EAFILTER,RADIO FREQUE  PMCMTC1N000
SPE7M526T83485985011474449                                    701161616403/19/26SPE7M526T8348.pdf  0000014EAANTENNA              PMCMBC1N000
SPE7M526T83495961011654004                                    701569783603/19/26SPE7M526T8349.pdf  0000155EASEMICONDUCTOR DEVIC  PMCMBC1Y100
SPE7M526T83505905011673949                                    701523428703/19/26SPE7M526T8350.pdf  0000005EARESISTOR,VARIABLE,W  PMCM4R1N000
SPE7M526T83515963016461056                                    701568892103/19/26SPE7M526T8351.pdf  0000022EADETECTOR,VIDEO SIGN  PMCMBL1Y100
SPE7M526T83525961005361543                                    701580541803/19/26SPE7M526T8352.pdf  0000001EATRANSISTOR           PMCMBC1N000
SPE7M526T83535963152017097                                    701563395303/19/26SPE7M526T8353.pdf  0000003EAREGULATOR,VOLTAGE    PMCMBZ1N000
SPE7M526U00145935005947689                                    100022673403/23/26SPE7M526U0014.pdf  0001244EACONNECTOR,PLUG,ELEC  PMCMTT1N000
SPE7M826T25605845144798926                                    701327041803/19/26SPE7M826T2560.pdf  0000176EAHOLDER SUBASSEMBLY,  PMCMVD1N000
SPE7MC26T63164820011778053                                    701149970603/19/26SPE7MC26T6316.pdf  0000001AYVALVE,BLEEDER,HYDRA  PMCM6L1N000
SPE7MC26T63174810014853588                                    701569727603/19/26SPE7MC26T6317.pdf  0000115EABODY,VALVE           PMCM7G1R100
SPE7MC26T63184820006208123                                    701560681303/19/26SPE7MC26T6318.pdf  0000294EAVALVE,SAFETY RELIEF  PMCM7G1N000
SPE7MC26T63194820006178075                                    701505074203/19/26SPE7MC26T6319.pdf  0000021EAVALVE,CHECK          PMCMUZ1Y100
SPE7MC26T63214820012944834                                    701016535003/19/26SPE7MC26T6321.pdf  0000003EAVALVE,SAFETY RELIEF  PMCM7D1N000
SPE7MC26T63224810014782127                                    701309367103/19/26SPE7MC26T6322.pdf  0000001EASTATOR ASSY          PMCM7D1N000
SPE7MC26T63234810013500234                                    701575006403/19/26SPE7MC26T6323.pdf  0000003EAACTUATOR,ELECTRO-ME  PMCM7D1Y100
SPE7MC26T63254820017359106                                    701575604303/19/26SPE7MC26T6325.pdf  0000001KTREPAIR KIT,VALVE     PMCM7Q1N000
SPE7MC26T63254820017359106                                    701575604403/19/26SPE7MC26T6325.pdf  0000001KTREPAIR KIT,VALVE     PMCM7Q1N000
SPE7MC26T63254820017359106                                    701575604503/19/26SPE7MC26T6325.pdf  0000001KTREPAIR KIT,VALVE     PMCM7Q1N000
SPE7MC26T63254820017359106                                    701575604603/19/26SPE7MC26T6325.pdf  0000001KTREPAIR KIT,VALVE     PMCM7Q1N000
SPE7MC26T63264820016520733                                    701579370003/19/26SPE7MC26T6326.pdf  0000001EAVALVE,GATE           PMCM7Q1N000
SPE7MC26T63274820013829785                                    701347030503/19/26SPE7MC26T6327.pdf  0000033EAGAGGING DEVICE,VALV  PMCM7G1Y100
SPE7MC26T63284820014381521                                    701300341803/19/26SPE7MC26T6328.pdf  0000042EAVALVE,ROTARY,SELECT  PMCM7C1N000
SPE7MC26T63294810013814488                                    701523213303/19/26SPE7MC26T6329.pdf  0000005EAVALVE,SOLENOID       PMCM7R1N000
SPE7MC26T63304820013063275                                    701560386903/19/26SPE7MC26T6330.pdf  0000529EACOCK,POPPET DRAIN    PMCMUG1N000
SPE7MC26T63314810123656576                                    701300108503/19/26SPE7MC26T6331.pdf  0000002EAVALVE ASSEMBLY,MANI  PMCM7Q1N000
SPE7MC26T63324810015171419                                    701523414603/19/26SPE7MC26T6332.pdf  0000039EAVALVE,SOLENOID       PMCM7C1N000
SPE8E426T10339525014322389                                    701577364003/19/26SPE8E426T1033.pdf  0000012FTWIRE,NONELECTRICAL   PEPCBG1N000
SPE8E426T10349535002326879                                    701577326703/19/26SPE8E426T1034.pdf  0000024SHSHEET,METAL          PEPCBG1N000
SPE8E426T10369535002223865                                    701577306303/19/26SPE8E426T1036.pdf  0000053SHSHIM STOCK,LAMINATE  PEPCBG1N000
SPE8E426T10379525002777829                                    701577331903/19/26SPE8E426T1037.pdf  0000027CLWIRE,NONELECTRICAL   PEPCBG1Y100
SPE8E426T10389505006034115                                    701577273403/19/26SPE8E426T1038.pdf  0000041SLWIRE,NONELECTRICAL   PEPCBG1Y100
SPE8E526T18113439010836294                                    701577370603/19/26SPE8E526T1811.pdf  0000017EASOLDERING AID SET    DIH00Q1N000
SPE8E526T18135411012987105                                    701577598503/19/26SPE8E526T1813.pdf  0000004EASUPPORT,STRUT ASSEM  PHPHAG1N000
SPE8E626T18315640011348273                                    701563397903/19/26SPE8E626T1831.pdf  0000008EAINSULATION BLOCK,TH  DNM00G1N000
SPE8E626T18327690015755872                                    701577259703/19/26SPE8E626T1832.pdf  0000015EAMARKER,IDENTIFICATI  DVN00D1N000
SPE8E626T18344240013422857                                    701579931503/19/26SPE8E626T1834.pdf  0000006PGCARTRIDGE,RESPIRATO  DBS00Z1N000
SPE8E626T18357690016178691                                    701574385303/19/26SPE8E626T1835.pdf  0000001EALABEL                PEPCAD1N000
SPE8E626T18363439016082967                                    701577270403/19/26SPE8E626T1836.pdf  0000001EASOLDERING SYSTEM,EL  DCB02D1N000
SPE8E626T18389330016851732                                    701456291803/19/26SPE8E626T1838.pdf  0000003EAPLASTIC BAR          PEPCSG1N000
SPE8E626T18394240016962333                                    701488997103/19/26SPE8E626T1839.pdf  0000006EACURTAIN,SAFETY,WELD  DBS00G1N000
SPE8E626T18407690015101566                                    701573915403/19/26SPE8E626T1840.pdf  0000010EADECAL SET            DVN00D1N000
SPE8E626T18414240017133976                                    701561853903/19/26SPE8E626T1841.pdf  0000020PGLENS,HELMET,WELDER'  DRK00Z1N000
SPE8E626T18439320016480281                                    701580222003/19/26SPE8E626T1843.pdf  0000001BXTAPE,ADHESIVE,RUBBE  DCB02D1N000
SPE8E726T15786210014498540                                    701503187003/19/26SPE8E726T1578.pdf  0000007EALIGHT,MARKER,AIRCRA  PEPCAD1N000
SPE8E926T16719540013698448                                    701577581503/19/26SPE8E926T1671.pdf  0000001FTANGLE,STRUCTURAL     PEPCAG1N000
SPE8E926T16734520007403428                                    701577279203/19/26SPE8E926T1673.pdf  0000063EAHEATING ELEMENT,ELE  PEPCAP1Y100
SPE8ED26T06028145017329070                                    701577330803/19/26SPE8ED26T0602.pdf  0000004EACUSHIONING MATERIAL  PEPCDR1N000
SPE8ED26T06038145017329064                                    701577330703/19/26SPE8ED26T0603.pdf  0000013EACUSHIONING MATERIAL  PEPCDR1N000
SPE8ED26T06048145015732533                                    701577259303/19/26SPE8ED26T0604.pdf  0000369EASHIPPING AND STORAG  PEPCDZ1N000
SPE8ED26T06058145014976117                                    701577286203/19/26SPE8ED26T0605.pdf  0000006EASUPPORT,SHIPPING AN  PEPCDG1N000
SPE8ED26T06068145014294965                                    701577363903/19/26SPE8ED26T0606.pdf  0000065EATRAY,ASSY            PEPCDL1N000
SPE8ED26T06088145017329082                                    701577332003/19/26SPE8ED26T0608.pdf  0000004EACUSHIONING MATERIAL  PEPCDR1N000
SPE8ED26T06098145016692726                                    701560125003/19/26SPE8ED26T0609.pdf  0000009EASHIPPING AND STORAG  PEPCDD1N000
SPE8ED26T06108145017329062                                    701577330603/19/26SPE8ED26T0610.pdf  0000002EACUSHIONING MATERIAL  PEPCDR1N000
SPE8EE26T10283940013785229                                    701512381803/19/26SPE8EE26T1028.pdf  0000001EAADAPTER,HOISTING     PEPCEP1N000
SPE8EF26T07411730011365619                                    701271813003/19/26SPE8EF26T0741.pdf  0000007EACOVER,AIRCRAFT GROU  DSA00Q1N000
SPE8ES26T12008040015235394                                    701579988203/16/26SPE8ES26T1200.pdf  0000002KTADHESIVE             PEPCEG1N000
SPE8ES26T12018030013046635                                    701580014103/16/26SPE8ES26T1201.pdf  0000002EASEALING COMPOUND     PEPCEZ1N000
SPE8ES26T12018030013046635                                    701580152503/16/26SPE8ES26T1201.pdf  0000005EASEALING COMPOUND     PEPCEZ1N000
SPE8ES26T12028030016865721                                    701568682103/16/26SPE8ES26T1202.pdf  0000001BXSEALING COMPOUND     PEPCED1N000
SPEFA326T01972840LN0035372                                    701579828503/16/26SPEFA326T0197.pdf  0000002EAFERRULE,IGNITOR      DJG02L1N000
SPEFA326T01981680LN0035247                                    701580077103/16/26SPEFA326T0198.pdf  0000001EAPLATE, IDENTIFICATIONDJG02L1N000
SPRAL126Q00095895016617077                                    100022117504/08/26SPRAL126Q0009.pdf  0000017EAAMPLIFIER-FREQUENCY  PMCM7C1Y100
SPRAL126Q00206625015652261                                    100022589003/24/26SPRAL126Q0020.pdf  0000004EAMETER,SPECIAL SCALE  DKM02D1Y100
